{
  "_format": "hh3-artifact-1",
  "contractName": "ERC20Paymaster",
  "sourceName": "contracts/Erc20Paymaster.sol",
  "abi": [
    {
      "inputs": [
        {
          "internalType": "contract IEntryPoint",
          "name": "_entryPoint",
          "type": "address"
        },
        {
          "internalType": "contract IERC20",
          "name": "_token",
          "type": "address"
        },
        {
          "internalType": "address",
          "name": "_priceFeed",
          "type": "address"
        }
      ],
      "stateMutability": "nonpayable",
      "type": "constructor"
    },
    {
      "inputs": [
        {
          "internalType": "address",
          "name": "owner",
          "type": "address"
        }
      ],
      "name": "OwnableInvalidOwner",
      "type": "error"
    },
    {
      "inputs": [
        {
          "internalType": "address",
          "name": "account",
          "type": "address"
        }
      ],
      "name": "OwnableUnauthorizedAccount",
      "type": "error"
    },
    {
      "inputs": [
        {
          "internalType": "address",
          "name": "token",
          "type": "address"
        }
      ],
      "name": "SafeERC20FailedOperation",
      "type": "error"
    },
    {
      "anonymous": false,
      "inputs": [
        {
          "indexed": true,
          "internalType": "address",
          "name": "previousOwner",
          "type": "address"
        },
        {
          "indexed": true,
          "internalType": "address",
          "name": "newOwner",
          "type": "address"
        }
      ],
      "name": "OwnershipTransferred",
      "type": "event"
    },
    {
      "inputs": [],
      "name": "PRICE_DENOMINATOR",
      "outputs": [
        {
          "internalType": "uint256",
          "name": "",
          "type": "uint256"
        }
      ],
      "stateMutability": "view",
      "type": "function"
    },
    {
      "inputs": [],
      "name": "PRICE_MARKUP",
      "outputs": [
        {
          "internalType": "uint256",
          "name": "",
          "type": "uint256"
        }
      ],
      "stateMutability": "view",
      "type": "function"
    },
    {
      "inputs": [
        {
          "internalType": "uint32",
          "name": "unstakeDelaySec",
          "type": "uint32"
        }
      ],
      "name": "addStake",
      "outputs": [],
      "stateMutability": "payable",
      "type": "function"
    },
    {
      "inputs": [],
      "name": "deposit",
      "outputs": [],
      "stateMutability": "payable",
      "type": "function"
    },
    {
      "inputs": [],
      "name": "entryPoint",
      "outputs": [
        {
          "internalType": "contract IEntryPoint",
          "name": "",
          "type": "address"
        }
      ],
      "stateMutability": "view",
      "type": "function"
    },
    {
      "inputs": [],
      "name": "owner",
      "outputs": [
        {
          "internalType": "address",
          "name": "",
          "type": "address"
        }
      ],
      "stateMutability": "view",
      "type": "function"
    },
    {
      "inputs": [
        {
          "internalType": "enum IPaymaster.PostOpMode",
          "name": "mode",
          "type": "uint8"
        },
        {
          "internalType": "bytes",
          "name": "context",
          "type": "bytes"
        },
        {
          "internalType": "uint256",
          "name": "actualGasCost",
          "type": "uint256"
        }
      ],
      "name": "postOp",
      "outputs": [],
      "stateMutability": "nonpayable",
      "type": "function"
    },
    {
      "inputs": [],
      "name": "priceFeed",
      "outputs": [
        {
          "internalType": "contract AggregatorV3Interface",
          "name": "",
          "type": "address"
        }
      ],
      "stateMutability": "view",
      "type": "function"
    },
    {
      "inputs": [],
      "name": "renounceOwnership",
      "outputs": [],
      "stateMutability": "nonpayable",
      "type": "function"
    },
    {
      "inputs": [],
      "name": "token",
      "outputs": [
        {
          "internalType": "contract IERC20",
          "name": "",
          "type": "address"
        }
      ],
      "stateMutability": "view",
      "type": "function"
    },
    {
      "inputs": [
        {
          "internalType": "address",
          "name": "newOwner",
          "type": "address"
        }
      ],
      "name": "transferOwnership",
      "outputs": [],
      "stateMutability": "nonpayable",
      "type": "function"
    },
    {
      "inputs": [],
      "name": "unlockStake",
      "outputs": [],
      "stateMutability": "nonpayable",
      "type": "function"
    },
    {
      "inputs": [
        {
          "components": [
            {
              "internalType": "address",
              "name": "sender",
              "type": "address"
            },
            {
              "internalType": "uint256",
              "name": "nonce",
              "type": "uint256"
            },
            {
              "internalType": "bytes",
              "name": "initCode",
              "type": "bytes"
            },
            {
              "internalType": "bytes",
              "name": "callData",
              "type": "bytes"
            },
            {
              "internalType": "uint256",
              "name": "callGasLimit",
              "type": "uint256"
            },
            {
              "internalType": "uint256",
              "name": "verificationGasLimit",
              "type": "uint256"
            },
            {
              "internalType": "uint256",
              "name": "preVerificationGas",
              "type": "uint256"
            },
            {
              "internalType": "uint256",
              "name": "maxFeePerGas",
              "type": "uint256"
            },
            {
              "internalType": "uint256",
              "name": "maxPriorityFeePerGas",
              "type": "uint256"
            },
            {
              "internalType": "bytes",
              "name": "paymasterAndData",
              "type": "bytes"
            },
            {
              "internalType": "bytes",
              "name": "signature",
              "type": "bytes"
            }
          ],
          "internalType": "struct UserOperation",
          "name": "userOp",
          "type": "tuple"
        },
        {
          "internalType": "bytes32",
          "name": "",
          "type": "bytes32"
        },
        {
          "internalType": "uint256",
          "name": "maxCost",
          "type": "uint256"
        }
      ],
      "name": "validatePaymasterUserOp",
      "outputs": [
        {
          "internalType": "bytes",
          "name": "context",
          "type": "bytes"
        },
        {
          "internalType": "uint256",
          "name": "validationData",
          "type": "uint256"
        }
      ],
      "stateMutability": "nonpayable",
      "type": "function"
    },
    {
      "inputs": [
        {
          "internalType": "address payable",
          "name": "withdrawAddress",
          "type": "address"
        }
      ],
      "name": "withdrawStake",
      "outputs": [],
      "stateMutability": "nonpayable",
      "type": "function"
    },
    {
      "inputs": [
        {
          "internalType": "address payable",
          "name": "withdrawAddress",
          "type": "address"
        },
        {
          "internalType": "uint256",
          "name": "amount",
          "type": "uint256"
        }
      ],
      "name": "withdrawTo",
      "outputs": [],
      "stateMutability": "nonpayable",
      "type": "function"
    },
    {
      "inputs": [
        {
          "internalType": "address",
          "name": "to",
          "type": "address"
        },
        {
          "internalType": "uint256",
          "name": "amount",
          "type": "uint256"
        }
      ],
      "name": "withdrawToken",
      "outputs": [],
      "stateMutability": "nonpayable",
      "type": "function"
    }
  ],
  "bytecode": "0x60e060405234801561000f575f5ffd5b50604051611f4e380380611f4e833981810160405281019061003191906102eb565b335f73ffffffffffffffffffffffffffffffffffffffff168173ffffffffffffffffffffffffffffffffffffffff16036100a2575f6040517f1e4fbdf7000000000000000000000000000000000000000000000000000000008152600401610099919061034a565b60405180910390fd5b6100b18161015660201b60201c565b508273ffffffffffffffffffffffffffffffffffffffff1660808173ffffffffffffffffffffffffffffffffffffffff16815250508173ffffffffffffffffffffffffffffffffffffffff1660a08173ffffffffffffffffffffffffffffffffffffffff16815250508073ffffffffffffffffffffffffffffffffffffffff1660c08173ffffffffffffffffffffffffffffffffffffffff1681525050505050610363565b5f5f5f9054906101000a900473ffffffffffffffffffffffffffffffffffffffff169050815f5f6101000a81548173ffffffffffffffffffffffffffffffffffffffff021916908373ffffffffffffffffffffffffffffffffffffffff1602179055508173ffffffffffffffffffffffffffffffffffffffff168173ffffffffffffffffffffffffffffffffffffffff167f8be0079c531659141344cd1fd0a4f28419497f9722a3daafe3b4186f6b6457e060405160405180910390a35050565b5f5ffd5b5f73ffffffffffffffffffffffffffffffffffffffff82169050919050565b5f6102448261021b565b9050919050565b5f6102558261023a565b9050919050565b6102658161024b565b811461026f575f5ffd5b50565b5f815190506102808161025c565b92915050565b5f6102908261023a565b9050919050565b6102a081610286565b81146102aa575f5ffd5b50565b5f815190506102bb81610297565b92915050565b6102ca8161023a565b81146102d4575f5ffd5b50565b5f815190506102e5816102c1565b92915050565b5f5f5f6060848603121561030257610301610217565b5b5f61030f86828701610272565b9350506020610320868287016102ad565b9250506040610331868287016102d7565b9150509250925092565b6103448161023a565b82525050565b5f60208201905061035d5f83018461033b565b92915050565b60805160a05160c051611b666103e85f395f818161048a01528181610c1d0152610d8301525f81816104e20152818161061f015281816109e101528181610a5c0152610cf301525f8181610353015281816103e60152818161052c01528181610675015281816106a101528181610726015281816107af01526108c00152611b665ff3fe6080604052600436106100f2575f3560e01c8063adfc48b411610089578063d0e30db011610058578063d0e30db0146102b0578063f2fde38b146102ba578063f465c77e146102e2578063fc0c546a1461031f576100f2565b8063adfc48b41461021e578063b0d691fe14610248578063bb9fe6bf14610272578063c23a5cea14610288576100f2565b8063741bef1a116100c5578063741bef1a1461017a5780638da5cb5b146101a45780639e281a98146101ce578063a9a23409146101f6576100f2565b80630396cb60146100f6578063205c2878146101125780636c1516e11461013a578063715018a614610164575b5f5ffd5b610110600480360381019061010b9190610fed565b610349565b005b34801561011d575f5ffd5b50610138600480360381019061013391906110a5565b6103dc565b005b348015610145575f5ffd5b5061014e610470565b60405161015b91906110f2565b60405180910390f35b34801561016f575f5ffd5b50610178610475565b005b348015610185575f5ffd5b5061018e610488565b60405161019b9190611166565b60405180910390f35b3480156101af575f5ffd5b506101b86104ac565b6040516101c5919061119f565b60405180910390f35b3480156101d9575f5ffd5b506101f460048036038101906101ef91906111e2565b6104d3565b005b348015610201575f5ffd5b5061021c600480360381019061021791906112a4565b61052a565b005b348015610229575f5ffd5b5061023261066e565b60405161023f91906110f2565b60405180910390f35b348015610253575f5ffd5b5061025c610673565b6040516102699190611335565b60405180910390f35b34801561027d575f5ffd5b50610286610697565b005b348015610293575f5ffd5b506102ae60048036038101906102a9919061134e565b61071c565b005b6102b86107ad565b005b3480156102c5575f5ffd5b506102e060048036038101906102db9190611379565b610837565b005b3480156102ed575f5ffd5b50610308600480360381019061030391906113fa565b6108bb565b6040516103169291906114d6565b60405180910390f35b34801561032a575f5ffd5b50610333610a5a565b6040516103409190611524565b60405180910390f35b610351610a7e565b7f000000000000000000000000000000000000000000000000000000000000000073ffffffffffffffffffffffffffffffffffffffff16630396cb6034836040518363ffffffff1660e01b81526004016103ab919061154c565b5f604051808303818588803b1580156103c2575f5ffd5b505af11580156103d4573d5f5f3e3d5ffd5b505050505050565b6103e4610a7e565b7f000000000000000000000000000000000000000000000000000000000000000073ffffffffffffffffffffffffffffffffffffffff1663205c287883836040518363ffffffff1660e01b815260040161043f929190611574565b5f604051808303815f87803b158015610456575f5ffd5b505af1158015610468573d5f5f3e3d5ffd5b505050505050565b606481565b61047d610a7e565b6104865f610b05565b565b7f000000000000000000000000000000000000000000000000000000000000000081565b5f5f5f9054906101000a900473ffffffffffffffffffffffffffffffffffffffff16905090565b6104db610a7e565b61052682827f000000000000000000000000000000000000000000000000000000000000000073ffffffffffffffffffffffffffffffffffffffff16610bc69092919063ffffffff16565b5050565b7f000000000000000000000000000000000000000000000000000000000000000073ffffffffffffffffffffffffffffffffffffffff163373ffffffffffffffffffffffffffffffffffffffff16146105b8576040517f08c379a00000000000000000000000000000000000000000000000000000000081526004016105af906115f5565b60405180910390fd5b6002808111156105cb576105ca611613565b5b8460028111156105de576105dd611613565b5b0315610668575f5f84848101906105f591906110a5565b915091505f61060384610c19565b9050808211156106645761066383828461061d919061166d565b7f000000000000000000000000000000000000000000000000000000000000000073ffffffffffffffffffffffffffffffffffffffff16610bc69092919063ffffffff16565b5b5050505b50505050565b606e81565b7f000000000000000000000000000000000000000000000000000000000000000081565b61069f610a7e565b7f000000000000000000000000000000000000000000000000000000000000000073ffffffffffffffffffffffffffffffffffffffff1663bb9fe6bf6040518163ffffffff1660e01b81526004015f604051808303815f87803b158015610704575f5ffd5b505af1158015610716573d5f5f3e3d5ffd5b50505050565b610724610a7e565b7f000000000000000000000000000000000000000000000000000000000000000073ffffffffffffffffffffffffffffffffffffffff1663c23a5cea826040518263ffffffff1660e01b815260040161077d91906116a0565b5f604051808303815f87803b158015610794575f5ffd5b505af11580156107a6573d5f5f3e3d5ffd5b5050505050565b7f000000000000000000000000000000000000000000000000000000000000000073ffffffffffffffffffffffffffffffffffffffff1663b760faf934306040518363ffffffff1660e01b8152600401610807919061119f565b5f604051808303818588803b15801561081e575f5ffd5b505af1158015610830573d5f5f3e3d5ffd5b5050505050565b61083f610a7e565b5f73ffffffffffffffffffffffffffffffffffffffff168173ffffffffffffffffffffffffffffffffffffffff16036108af575f6040517f1e4fbdf70000000000000000000000000000000000000000000000000000000081526004016108a6919061119f565b60405180910390fd5b6108b881610b05565b50565b60605f7f000000000000000000000000000000000000000000000000000000000000000073ffffffffffffffffffffffffffffffffffffffff163373ffffffffffffffffffffffffffffffffffffffff161461094c576040517f08c379a0000000000000000000000000000000000000000000000000000000008152600401610943906115f5565b60405180910390fd5b5f61095684610c19565b90505f865f01602081019061096b9190611379565b73ffffffffffffffffffffffffffffffffffffffff16638da5cb5b6040518163ffffffff1660e01b8152600401602060405180830381865afa1580156109b3573d5f5f3e3d5ffd5b505050506040513d601f19601f820116820180604052508101906109d791906116cd565b9050610a268130847f000000000000000000000000000000000000000000000000000000000000000073ffffffffffffffffffffffffffffffffffffffff16610e7d909392919063ffffffff16565b8082604051602001610a399291906116f8565b6040516020818303038152906040529350835f935093505050935093915050565b7f000000000000000000000000000000000000000000000000000000000000000081565b610a86610ed2565b73ffffffffffffffffffffffffffffffffffffffff16610aa46104ac565b73ffffffffffffffffffffffffffffffffffffffff1614610b0357610ac7610ed2565b6040517f118cdaa7000000000000000000000000000000000000000000000000000000008152600401610afa919061119f565b60405180910390fd5b565b5f5f5f9054906101000a900473ffffffffffffffffffffffffffffffffffffffff169050815f5f6101000a81548173ffffffffffffffffffffffffffffffffffffffff021916908373ffffffffffffffffffffffffffffffffffffffff1602179055508173ffffffffffffffffffffffffffffffffffffffff168173ffffffffffffffffffffffffffffffffffffffff167f8be0079c531659141344cd1fd0a4f28419497f9722a3daafe3b4186f6b6457e060405160405180910390a35050565b610bd38383836001610ed9565b610c1457826040517f5274afe7000000000000000000000000000000000000000000000000000000008152600401610c0b919061119f565b60405180910390fd5b505050565b5f5f7f000000000000000000000000000000000000000000000000000000000000000073ffffffffffffffffffffffffffffffffffffffff1663feaf968c6040518163ffffffff1660e01b815260040160a060405180830381865afa158015610c84573d5f5f3e3d5ffd5b505050506040513d601f19601f82011682018060405250810190610ca891906117a5565b5050509150505f8113610cf0576040517f08c379a0000000000000000000000000000000000000000000000000000000008152600401610ce790611866565b60405180910390fd5b5f7f000000000000000000000000000000000000000000000000000000000000000073ffffffffffffffffffffffffffffffffffffffff1663313ce5676040518163ffffffff1660e01b8152600401602060405180830381865afa158015610d5a573d5f5f3e3d5ffd5b505050506040513d601f19601f82011682018060405250810190610d7e91906118ba565b90505f7f000000000000000000000000000000000000000000000000000000000000000073ffffffffffffffffffffffffffffffffffffffff1663313ce5676040518163ffffffff1660e01b8152600401602060405180830381865afa158015610dea573d5f5f3e3d5ffd5b505050506040513d601f19601f82011682018060405250810190610e0e91906118ba565b90505f6064826012610e2091906118e5565b600a610e2c9190611a48565b610e369190611a92565b83600a610e439190611a48565b606e8689610e519190611a92565b610e5b9190611a92565b610e659190611a92565b610e6f9190611b00565b905080945050505050919050565b610e8b848484846001610f3b565b610ecc57836040517f5274afe7000000000000000000000000000000000000000000000000000000008152600401610ec3919061119f565b60405180910390fd5b50505050565b5f33905090565b5f5f63a9059cbb60e01b9050604051815f525f1960601c86166004528460245260205f60445f5f8b5af1925060015f51148316610f2d578383151615610f21573d5f823e3d81fd5b5f873b113d1516831692505b806040525050949350505050565b5f5f6323b872dd60e01b9050604051815f525f1960601c87166004525f1960601c86166024528460445260205f60645f5f8c5af1925060015f51148316610f99578383151615610f8d573d5f823e3d81fd5b5f883b113d1516831692505b806040525f606052505095945050505050565b5f5ffd5b5f5ffd5b5f63ffffffff82169050919050565b610fcc81610fb4565b8114610fd6575f5ffd5b50565b5f81359050610fe781610fc3565b92915050565b5f6020828403121561100257611001610fac565b5b5f61100f84828501610fd9565b91505092915050565b5f73ffffffffffffffffffffffffffffffffffffffff82169050919050565b5f61104182611018565b9050919050565b61105181611037565b811461105b575f5ffd5b50565b5f8135905061106c81611048565b92915050565b5f819050919050565b61108481611072565b811461108e575f5ffd5b50565b5f8135905061109f8161107b565b92915050565b5f5f604083850312156110bb576110ba610fac565b5b5f6110c88582860161105e565b92505060206110d985828601611091565b9150509250929050565b6110ec81611072565b82525050565b5f6020820190506111055f8301846110e3565b92915050565b5f819050919050565b5f61112e61112961112484611018565b61110b565b611018565b9050919050565b5f61113f82611114565b9050919050565b5f61115082611135565b9050919050565b61116081611146565b82525050565b5f6020820190506111795f830184611157565b92915050565b5f61118982611018565b9050919050565b6111998161117f565b82525050565b5f6020820190506111b25f830184611190565b92915050565b6111c18161117f565b81146111cb575f5ffd5b50565b5f813590506111dc816111b8565b92915050565b5f5f604083850312156111f8576111f7610fac565b5b5f611205858286016111ce565b925050602061121685828601611091565b9150509250929050565b6003811061122c575f5ffd5b50565b5f8135905061123d81611220565b92915050565b5f5ffd5b5f5ffd5b5f5ffd5b5f5f83601f84011261126457611263611243565b5b8235905067ffffffffffffffff81111561128157611280611247565b5b60208301915083600182028301111561129d5761129c61124b565b5b9250929050565b5f5f5f5f606085870312156112bc576112bb610fac565b5b5f6112c98782880161122f565b945050602085013567ffffffffffffffff8111156112ea576112e9610fb0565b5b6112f68782880161124f565b9350935050604061130987828801611091565b91505092959194509250565b5f61131f82611135565b9050919050565b61132f81611315565b82525050565b5f6020820190506113485f830184611326565b92915050565b5f6020828403121561136357611362610fac565b5b5f6113708482850161105e565b91505092915050565b5f6020828403121561138e5761138d610fac565b5b5f61139b848285016111ce565b91505092915050565b5f5ffd5b5f61016082840312156113be576113bd6113a4565b5b81905092915050565b5f819050919050565b6113d9816113c7565b81146113e3575f5ffd5b50565b5f813590506113f4816113d0565b92915050565b5f5f5f6060848603121561141157611410610fac565b5b5f84013567ffffffffffffffff81111561142e5761142d610fb0565b5b61143a868287016113a8565b935050602061144b868287016113e6565b925050604061145c86828701611091565b9150509250925092565b5f81519050919050565b5f82825260208201905092915050565b8281835e5f83830152505050565b5f601f19601f8301169050919050565b5f6114a882611466565b6114b28185611470565b93506114c2818560208601611480565b6114cb8161148e565b840191505092915050565b5f6040820190508181035f8301526114ee818561149e565b90506114fd60208301846110e3565b9392505050565b5f61150e82611135565b9050919050565b61151e81611504565b82525050565b5f6020820190506115375f830184611515565b92915050565b61154681610fb4565b82525050565b5f60208201905061155f5f83018461153d565b92915050565b61156e81611037565b82525050565b5f6040820190506115875f830185611565565b61159460208301846110e3565b9392505050565b5f82825260208201905092915050565b7f5061796d61737465723a206f6e6c7920456e747279506f696e740000000000005f82015250565b5f6115df601a8361159b565b91506115ea826115ab565b602082019050919050565b5f6020820190508181035f83015261160c816115d3565b9050919050565b7f4e487b71000000000000000000000000000000000000000000000000000000005f52602160045260245ffd5b7f4e487b71000000000000000000000000000000000000000000000000000000005f52601160045260245ffd5b5f61167782611072565b915061168283611072565b925082820390508181111561169a57611699611640565b5b92915050565b5f6020820190506116b35f830184611565565b92915050565b5f815190506116c7816111b8565b92915050565b5f602082840312156116e2576116e1610fac565b5b5f6116ef848285016116b9565b91505092915050565b5f60408201905061170b5f830185611190565b61171860208301846110e3565b9392505050565b5f69ffffffffffffffffffff82169050919050565b61173d8161171f565b8114611747575f5ffd5b50565b5f8151905061175881611734565b92915050565b5f819050919050565b6117708161175e565b811461177a575f5ffd5b50565b5f8151905061178b81611767565b92915050565b5f8151905061179f8161107b565b92915050565b5f5f5f5f5f60a086880312156117be576117bd610fac565b5b5f6117cb8882890161174a565b95505060206117dc8882890161177d565b94505060406117ed88828901611791565b93505060606117fe88828901611791565b925050608061180f8882890161174a565b9150509295509295909350565b7f5061796d61737465723a20496e76616c696420707269636500000000000000005f82015250565b5f61185060188361159b565b915061185b8261181c565b602082019050919050565b5f6020820190508181035f83015261187d81611844565b9050919050565b5f60ff82169050919050565b61189981611884565b81146118a3575f5ffd5b50565b5f815190506118b481611890565b92915050565b5f602082840312156118cf576118ce610fac565b5b5f6118dc848285016118a6565b91505092915050565b5f6118ef82611884565b91506118fa83611884565b9250828201905060ff81111561191357611912611640565b5b92915050565b5f8160011c9050919050565b5f5f8291508390505b600185111561196e5780860481111561194a57611949611640565b5b60018516156119595780820291505b808102905061196785611919565b945061192e565b94509492505050565b5f826119865760019050611a41565b81611993575f9050611a41565b81600181146119a957600281146119b3576119e2565b6001915050611a41565b60ff8411156119c5576119c4611640565b5b8360020a9150848211156119dc576119db611640565b5b50611a41565b5060208310610133831016604e8410600b8410161715611a175782820a905083811115611a1257611a11611640565b5b611a41565b611a248484846001611925565b92509050818404811115611a3b57611a3a611640565b5b81810290505b9392505050565b5f611a5282611072565b9150611a5d83611884565b9250611a8a7fffffffffffffffffffffffffffffffffffffffffffffffffffffffffffffffff8484611977565b905092915050565b5f611a9c82611072565b9150611aa783611072565b9250828202611ab581611072565b91508282048414831517611acc57611acb611640565b5b5092915050565b7f4e487b71000000000000000000000000000000000000000000000000000000005f52601260045260245ffd5b5f611b0a82611072565b9150611b1583611072565b925082611b2557611b24611ad3565b5b82820490509291505056fea26469706673582212208cb840d398efd557c92d5ae89e5f3b023d64bdd9001a1b11063fdf5bea8b15ae64736f6c634300081c0033",
  "linkReferences": {},
  "deployedLinkReferences": {},
  "immutableReferences": {
    "1747": [
      {
        "length": 32,
        "start": 851
      },
      {
        "length": 32,
        "start": 998
      },
      {
        "length": 32,
        "start": 1324
      },
      {
        "length": 32,
        "start": 1653
      },
      {
        "length": 32,
        "start": 1697
      },
      {
        "length": 32,
        "start": 1830
      },
      {
        "length": 32,
        "start": 1967
      },
      {
        "length": 32,
        "start": 2240
      }
    ],
    "1750": [
      {
        "length": 32,
        "start": 1250
      },
      {
        "length": 32,
        "start": 1567
      },
      {
        "length": 32,
        "start": 2529
      },
      {
        "length": 32,
        "start": 2652
      },
      {
        "length": 32,
        "start": 3315
      }
    ],
    "1753": [
      {
        "length": 32,
        "start": 1162
      },
      {
        "length": 32,
        "start": 3101
      },
      {
        "length": 32,
        "start": 3459
      }
    ]
  },
  "inputSourceName": "project/contracts/Erc20Paymaster.sol",
  "buildInfoId": "solc-0_8_28-6ecb3116e9c1546681dbdafc5f1c03dc88687b0e"
}